{
  "contractName": "Contest",
  "abi": [
    {
      "inputs": [],
      "payable": false,
      "stateMutability": "nonpayable",
      "type": "constructor"
    },
    {
      "anonymous": false,
      "inputs": [
        {
          "indexed": true,
          "internalType": "uint256",
          "name": "_contestantId",
          "type": "uint256"
        }
      ],
      "name": "votedEvent",
      "type": "event"
    },
    {
      "constant": true,
      "inputs": [
        {
          "internalType": "uint256",
          "name": "",
          "type": "uint256"
        }
      ],
      "name": "contestants",
      "outputs": [
        {
          "internalType": "uint256",
          "name": "id",
          "type": "uint256"
        },
        {
          "internalType": "string",
          "name": "name",
          "type": "string"
        },
        {
          "internalType": "uint256",
          "name": "voteCount",
          "type": "uint256"
        }
      ],
      "payable": false,
      "stateMutability": "view",
      "type": "function"
    },
    {
      "constant": true,
      "inputs": [],
      "name": "contestantsCount",
      "outputs": [
        {
          "internalType": "uint256",
          "name": "",
          "type": "uint256"
        }
      ],
      "payable": false,
      "stateMutability": "view",
      "type": "function"
    },
    {
      "constant": true,
      "inputs": [
        {
          "internalType": "address",
          "name": "",
          "type": "address"
        }
      ],
      "name": "voters",
      "outputs": [
        {
          "internalType": "bool",
          "name": "",
          "type": "bool"
        }
      ],
      "payable": false,
      "stateMutability": "view",
      "type": "function"
    },
    {
      "constant": false,
      "inputs": [
        {
          "internalType": "uint256",
          "name": "_contestantId",
          "type": "uint256"
        }
      ],
      "name": "vote",
      "outputs": [],
      "payable": false,
      "stateMutability": "nonpayable",
      "type": "function"
    }
  ],
  "bytecode": "0x608060405234801561001057600080fd5b506100556040518060400160405280600881526020017f496e6e6f63656e740000000000000000000000000000000000000000000000008152506100e260201b60201c565b6100996040518060400160405280600581526020017f4d697468750000000000000000000000000000000000000000000000000000008152506100e260201b60201c565b6100dd6040518060400160405280600681526020017f47656f72676500000000000000000000000000000000000000000000000000008152506100e260201b60201c565b610202565b600160008154809291906001019190505550604051806060016040528060015481526020018281526020016000815250600080600154815260200190815260200160002060008201518160000155602082015181600101908051906020019061014c92919061015d565b506040820151816002015590505050565b828054600181600116156101000203166002900490600052602060002090601f016020900481019282601f1061019e57805160ff19168380011785556101cc565b828001600101855582156101cc579182015b828111156101cb5782518255916020019190600101906101b0565b5b5090506101d991906101dd565b5090565b6101ff91905b808211156101fb5760008160009055506001016101e3565b5090565b90565b6103ea806102116000396000f3fe608060405234801561001057600080fd5b506004361061004c5760003560e01c80630121b93f14610051578063a3ec138d1461007f578063dfd50f52146100db578063ec63d1c814610190575b600080fd5b61007d6004803603602081101561006757600080fd5b81019080803590602001909291905050506101ae565b005b6100c16004803603602081101561009557600080fd5b81019080803573ffffffffffffffffffffffffffffffffffffffff1690602001909291905050506102cd565b604051808215151515815260200191505060405180910390f35b610107600480360360208110156100f157600080fd5b81019080803590602001909291905050506102ed565b6040518084815260200180602001838152602001828103825284818151815260200191508051906020019080838360005b83811015610153578082015181840152602081019050610138565b50505050905090810190601f1680156101805780820380516001836020036101000a031916815260200191505b5094505050505060405180910390f35b6101986103af565b6040518082815260200191505060405180910390f35b600260003373ffffffffffffffffffffffffffffffffffffffff1673ffffffffffffffffffffffffffffffffffffffff16815260200190815260200160002060009054906101000a900460ff161561020557600080fd5b60008111801561021757506001548111155b61022057600080fd5b600080828152602001908152602001600020600201600081548092919060010191905055506001600260003373ffffffffffffffffffffffffffffffffffffffff1673ffffffffffffffffffffffffffffffffffffffff16815260200190815260200160002060006101000a81548160ff021916908315150217905550807ffff3c900d938d21d0990d786e819f29b8d05c1ef587b462b939609625b684b1660405160405180910390a250565b60026020528060005260406000206000915054906101000a900460ff1681565b6000602052806000526040600020600091509050806000015490806001018054600181600116156101000203166002900480601f01602080910402602001604051908101604052809291908181526020018280546001816001161561010002031660029004801561039f5780601f106103745761010080835404028352916020019161039f565b820191906000526020600020905b81548152906001019060200180831161038257829003601f168201915b5050505050908060020154905083565b6001548156fea265627a7a72315820c87b06279508baf1de0294cb31fe1fe18984c3e300d6560b0331c0a34266b2e864736f6c63430005100032",
  "source": "pragma solidity ^0.5.0;\n\ncontract Contest {\n\n    //solidity Structure data type;\n\n    //creating struct to model the contestant\n    struct Contestant {\n        uint id;\n        string name;\n        uint voteCount;\n    }\n\n    //Use mapping to get or fetch the contestant details\n    mapping(uint => Contestant) public contestants;\n\n    //A count to keep track of the number of the contestants count\n    uint public contestantsCount;\n\n    //save the list of users who already casted a vote\n    mapping(address => bool) public voters;\n\n\n    constructor() public {\n        addContestant(\"Innocent\");\n        addContestant(\"Mithu\");\n        addContestant(\"George\");\n    }\n\n    event votedEvent(uint indexed _contestantId);\n\n    //Since you can't get the length of an array in solidity\n    //You can keep track of the number of items in the\n\n    //add a function to add contestant\n    function addContestant (string memory _name) private {\n        contestantsCount++;\n        contestants[contestantsCount] = Contestant(contestantsCount, _name, 0);\n    }\n\n    function vote(uint _contestantId) public {\n\n        //restricting the person from casting another vote using require\n        require(!voters[msg.sender]);\n\n        //require that the addContestant value be added to the correct contestant\n        require(_contestantId > 0 && _contestantId<= contestantsCount);\n\n        //increase the contestant vote\n        contestants[_contestantId].voteCount ++;\n\n        //save the voter's vote\n        voters[msg.sender] = true;\n\n        //trigger the vote event\n        emit votedEvent(_contestantId);\n    }\n\n}\n",
  "sourcePath": "/Applications/XAMPP/xamppfiles/htdocs/votingSystem/contracts/Contest.sol",
  "compiler": {
    "name": "solc",
    "version": "0.5.16+commit.9c3226ce.Emscripten.clang"
  },
  "schemaVersion": "3.4.4",
  "updatedAt": "2022-02-06T19:08:53.930Z",
  "networkType": "ethereum",
  "devdoc": {
    "methods": {}
  },
  "userdoc": {
    "methods": {}
  }
}